:400000000080002011000000010300000103000008B5044B1A6803F53F5302331A6000F089F900BFFA46004010B5054C237833B9044B13B10448AFF300800123237010BDED
:400040008081FF1F00000000883C0000084B10B51BB108480849AFF300800848036803B910BD074B002BFBD0BDE81040184700BF00000000883C00008481FF1F0881FF1FC9
:400080000000000008B5184B1B78184B1B6853B3174A136833F8020BC0F30B101360B0F57F6F01D94FF47F6000F00EFC0F4A1368023B13600E4B1A680E4B9A4208D3A3F5BC
:4000C00080420B4B1A6001230B4A1370074A1371074B1A68094B9A4205D10122064B1A700022024B1A7108BD034F00409C81FF1FD491FF1FD8D1FF1F0C81FF1FD8B1FF1F9D
:4001000030B59DB062B600F0DBFA00F023FC634800F04AFB624A634B1A6000F01DFB0028FBD1614800F0E6FA00F06CFC5F48604900F068FD0546002874D05E4800F0DAFA5A
:4001400010A82C2101222B4600F012FC68465A49109A03F08FF9684600F0CCFA68465749119A03F087F9684600F0C4FA68465449129A03F07FF9684600F0BCFA6846514948
:40018000139A03F077F9684600F0B4FA68464E49149A03F06FF9684600F0ACFA68464B49BDF8542003F066F9684600F0A3FA68464749BDF8562003F05DF9684600F09AFA75
:4001C00068464449169A03F055F9684600F092FA68464149179A03F04DF9684600F08AFA68463E49BDF8602003F044F9684600F081FA68463A49BDF8622003F03BF9684675
:4002000000F078FA68463749199A03F033F9684600F070FA684634491A9A03F02BF9684600F068FA1A9C314B1C60314B1B7813F0FF0F27D000222E4B1A7068462D492246E8
:4002400003F018F9684600F055FA631EB3F5005F0BD2264B1879124B03EB4030022162082B4600F085FB00240CE0204B18790C4B03EB403002214FF480522B4600F078FB30
:40028000A4F500541C4B1B780BB900F0F5FA002CCBD11A4800F02EFAFEE700BF85000000D891FF1FD491FF1F8C3C0000A43C0000AC3C0000B03C0000BC3C0000CC3C0000C3
:4002C000DC3C0000E83C0000FC3C0000103D0000203D0000303D0000403D0000503D0000603D0000743D0000883D00009C81FF1F0C81FF1F9C3D0000A681FF1FA43D000071
:40030000FEE700BF08B5094B1A681044084BC31A802B02DC054B186005E003F06BF80C2303604FF0FF32104608BD00BF1081FF1F68D2FF1F08B5104E104D16E029686B68C1
:40034000AC68002204E051F8040B43F8040B0432A242F8D1E868002203E0002143F8041B04328242F9D11035013E002EE6D103F047F8FFF7C5FEFEE701000000783F000059
:4003800008B5124A124B1A60124A136843F40073136000230AE0032B03D80F4A52F8231000E00E490E4A42F8231001332F2BF2D90C4B1A780C4B1A70094A0C4B1A6000F03A
:4003C000B5F800220A4B1A6008BD00BF0004FA050CED00E014ED00E000000000010300000080FF1FBC7600400481FF1F08ED00E00081FF1FF0B40022174611E050F8276010
:40040000F3B226F0FF0608E001EB420511F812406D78A5550132013BDBB2002BF4D10137182FEBD9F0BC7047064B1B78DBB203F00701054A11701B09013213704422034B4B
:400440001A707047CF0100496E5800407658004008B50A46002103F004F808BD38B50024264B1C80582202331A70012202331A801823234A137019250232158002321370FA
:400480000622204B1A705222A3F580731A701E4B1B78DBB21D4A13701D4B1C804FF4E26203F21E231A8041F25122023B1A800CE0184B1B7803F0010343EA440404F0030402
:4004C0004FF4F07000F038F9013D0DB1032CEFD10F4A0723137000230F490B7048200231087013700532137002220C4B1A700C4A137843F00703137038BD00BF80400040A7
:4005000086400040004300400F010049A146004004400040254200400640004001400040A243004008B502F091FF08BD38B572B6384A137843F00403137000240CE03649E9
:4005400063001A1952000A4423445B00C8589188FFF77EFF0134E4B2092CF0D900240BE02D49A3001A1952000A44D06B116C8022FFF7D8FF0134E4B2002CF1D04FF0904025
:400580002649FFF737FF264A137843F0020313701032137843F002031370224C237843F040032370A2F58632513A137843F0100313701D481D490822FFF7B4FF1C481D49BA
:4005C0000822FFF7AFFF1C481C490A22FFF7AAFF1B481C490822FFF7A5FF1B481B490822FFF7A0FF1A4A137843F008031370194D61232B70FFF732FF81232B700122164B68
:400600001A70FFF711FF154821460E22FFF78AFF38BD00BFE8460040AC3D00006400004803500140A0430040025100406C060048C251004074060048205100407C0600486C
:4006400052510040880600486251004090060048224300400048004004000840B04300407222084B1A70202203F580731A700622A3F5AF731A70472210331A7000225033D5
:400680001A7070478964004010B500F05DF804460A4A137843F02003137002F58072137843F010031370FE3A137843F01003137000F032F8204600F04BF810BD996400403A
:4006C00008B5054B1B7823B9FFF7CAFF0122024B1A70FFF7D9FF08BDA481FF1F034B1B7813F0040FFAD1024B187070476B6400404864004038B5074B1B782BB938BDFFF705
:40070000EDFF0134A4B201E005460024285D0028F5D138BDA481FF1F054A137843F0040313701032137843F004031370704700BFA2430040000000000230800803D000BF3F
:4007400001380046FCD17047EFF3108072B6704780F31088704700BF024B1878C0F38000704700BF21510040024B1B68C3F88400704700BF08ED00E04001C0B2014B18708B
:40078000704700BF11E400E04FF40032014B1A60704700BF00E100E04FF40032014B1A60704700BF80E100E010B50446FFF7F4FF2046FFF7D9FF0720FFF7DEFFFFF7E4FF8B
:4007C00010BD00BF084A137843F0010313701032137843F00103137002F64D32137843F001031370704700BFA3430040014B1870704700BF034F0040014B1880704700BFC1
:40080000044F0040014B1880704700BF064F004008B5164A137803F0010313700232137803F0FC031370124B1A7802F0CF021A701A7842F030021A701A7802F0F0021A7024
:400840001A7842F00F021A700A4A137843F00103137040F2E720FFF7CFFF40F2E720FFF7D1FF0820FFF7C2FF08BD00BF004F00400B4F0040014F004008B5054B1B7823B9EC
:40088000FFF7C6FF0122024B1A70FFF79BFF08BDA681FF1F084A137843F0020313701032137843F00203137002F65932137843F001031370704700BFA3430040014B188081
:4008C000704700BF104F0040014B1880704700BF124F0040014B1870704700BF0F4F004008B5194A137843F0020313700232137803F08F0343F010031370144B1A7802F0AA
:40090000CF021A701A7842F030021A701A7802F0F0021A701A7842F00F021A704FF48050FFF7CCFF7F20FFF7CFFF0020FFF7D2FF074A137843F00203137002F66A321378A9
:4009400043F00103137008BD0C4F0040174F0040A343004008B5054B1B7823B9FFF7C0FF0122024B1A70FFF795FF08BDA781FF1F10B584460C4609B9084610BD184661460E
:40098000624300F099F9B0FBF4F010BD094B10B5D8689A68002308E0114652F8084B1CB901230B60486810BD01338342F4D3002010BD00BFD8D1FF1F084B30B50022DC68A8
:4009C0009B6808E05D6819460833854202D100230B6030BD0132A242F4D330BDD8D1FF1F01230373704700230373704710B1002282720260704718B1027B0AB1013A0273C4
:400A00007047000038B501F07FFC20B3124C4200E260000101F06CFC238AA060E068584301F066FCA568E168228A002304E005EBC3046060013380188B42F8D3102001F0AF
:400A400057FC054C6061282001F052FCA37CA06143F00203A37438BDD8D1FF1F38B510220D460021044601F075FBFFF78FFF08B9013038BDA0604FF0FF33002065602360DD
:400A8000A07338BD38B5104B9C69217B59B921606160A16004F11000142201F05BFB237B013323730DE0656A45B9282001F00AFC606218B12946282201F04CFB646A002C97
:400AC000E3D1204638BD00BFD8D1FF1F38B50E4B5C69A17AE56839B92046102201F03AFB0123A372E5600CE045B9102001F0EAFBE06018B12946102201F02CFBE468002C96
:400B0000E7D1204638BD00BFD8D1FF1F2DE9F74F06460020884691469B469DF830A09DF83470FFF7AFFF054608B9044610E0FFF7CDFF044660B180F80B900560AE6040461D
:400B4000214652463B46CDF800B001F0E5F830B12046FFF74BFF2846FFF74DFF00242046BDE8FE8F2DE9FF410C461F4604A9002341F8043D15469DF8286000F0BDF8804685
:400B8000B8B1039B0BB11B789BB1404600F03DF900280EDD14F0150F01D0032809D1039939B1404622462B4600970196FFF7AEFF00E0002004B0BDE8F08100002DE9F3410C
:400BC0000646884600240E4D404655F83410E70001F0F6FA10B9002C04DA0DE001340F2CF1D109E07D19A87929790090EA796B793046FFF7B7FF00E00020BDE8FC8100BF6F
:400C0000F43D0000FFF7DABF10B5437B04460BB1012010BD40682168A268A37B01F03FFC10B10120607310BD207310BD10B5437B044663B9037B53B140682168A268A37B52
:400C400001F02DFC08B1012363730023237310BD036870B5994204460D46164607D0037B0BB1FFF7E3FF00232560A673E37370BDFFF7DCBF10B50446FFF7D8FFA068BDE876
:400C80001040FFF799BE01230373FFF7CFBF10B50446407B08B1012010BDE37B5BB960682168A268A37B01F090FB10B10120607310BD0122E27310BD30B592B188B1857A7A
:400CC000046875B16CB190F80BC01CF0080C04D14FF6FB720281604630BDBDE8304001F05FB9002030BD08B5436813B94FF0FF3008BD984708BD00002DE9F0470F463A2102
:400D0000064601F08CFA044610B93446174D27E00378C6EB000A5BB114F8013F43B162783A2A05D1A3F130085FFA88F8023401E04FF000080D4D2B6828791B6898478146A8
:400D400001F04BFA504508D148463146524601F04CFA10B92B79434502D0ED6D002DEAD107B13C602846BDE8F08700BFF4D1FF1FF8B5174C064694F85B10E56D69B9602229
:400D80000127204601F0E6F984F85B70E5653046FFF7A9FF00280EDA18E045B9602001F091FAE06518B12946602201F0D3F9E46D002CE0D10AE0074B2660DA6F0132DA67C5
:400DC0000323207184F85B7084F85A302046F8BDF4D1FF1FD8D1FF1FFFF7CABF38B504460D4601F0C0FA08B9013838BD204601F0CDFA204601F06AFC204600F0B7FC08B1EA
:400E000084F8595094F8590038BD90F8593023B990F85A1009B1FFF7E1BF184670470C2802D0102805D102E001EB510070474800704788007047036840689B685B6AB0FBC1
:400E4000F3F0704710B5046D836CE4B199421AD3E318994217D2013B99420CBF4FF0FF31013172B190F836300C2B02D0102B05D102E00905090D03E089B201E021F0704122
:400E80001160012010BD002010BD40F6F473984201D80C2070474FF6F473984294BF102020207047027F8368023902FB01307047431EDBB21F2B13D92F2811D007D826289E
:400EC0000ED002D8222809D10AE02A3804E03A2804D33F2804D95B38022801D90120704700207047034638B30B2A01DD0B2200E0013A00201CE0082809D191F808C0BCF170
:400F0000200F0DD04FF02E0C03F801CB08E038B991F800C0BCF1050F02D1ACF1200C04E011F800C0BCF1200F01D003F801CB01309042E0DB00221A7070472DE9F04788B01F
:400F400005AE04460D463046114600229A469DF84490BDF84C80BDF8507000F01DFD08B1002413E020462946524600F00EFE044660B1129B31460093109A4B46CDF804801A
:400F8000029700F0C5FF2846FFF72AFD204608B0BDE8F08710B59DF80C400394BDE8104000F0D8BD2DE9F04F144E87B0109DDDF848809DF84440376800950194CDF8088001
:400FC00005937F68934682468946B84732680C4BDDF814C09A420DD060B9504649465A46634610951194CDF8488007B0BDE8F04FFFF7D0BF07B0BDE8F08F00BF1481FF1FE5
:401000009C3E000070B5C37A04460B7010300D4601F034F9064604F10E0001F02FF940EA0640686004F1120001F028F90004A86004F1180001F022F9064604F1160001F0D8
:401040001DF940EA0640E86004F11C0001F0FDF8286170BD2DE9F845038A04460E46924687692BB907F118002146626900F064FC38465146224600F0E7FC0546204600F048
:4010800065FCD5B12B78C3B1E52BF1D095F80B80B8F10F0FECD018F00808E9D170692946B269FFF71FFF28463146FFF7ABFF238A404601332382BDE8F8854FF0FF30BDE8B7
:4010C000F8850222FFF7C4BD2DE9F04790F8366005460C46304611469146FFF7A0FEB5F81E80AB6A20FA08F89845824602D30020BDE8F0876B8E05F1180798442046414691
:401100003A46FFF7DEFF2046FFF7C1FD18B14FF0FF30BDE8F087AA8BA168013A0AEA020A1FFA8AFA92450AEB01031AF8015001D0013309E0204608F101013A46FFF7C1FF21
:401140002046FFF7A4FDA36818780C2E45EA002009D0202E0FD15D7840EA05409D7840EA0560BDE8F08719F0010F02D00009BDE8F0870005000DBDE8F08700002DE9F341BB
:4011800090F83630144603FB02F7828B8846D200511E0F40D71B0546B7FBF3F7002618E00E4B93F88030022B05D12846214601AAFFF748FE28B9284641462246FFF784FF84
:4011C0000190019B0134A34205D10136B6B2013F1C46002FE4DC3046BDE8FC81D8D1FF1F2DE9F34105460E46144698461F681CE0114B93F88030022B05D12846214601AA85
:40120000FFF720FE28B9284631462246FFF75CFF0190737B0BB100240BE0AA6B019B0132934204D81BB1013F1C46002FE0D1C8F800702046BDE8FC81D8D1FF1F73B50468DB
:401240000E4623681BB9FFF7F6FD013039E0FFF7F2FD236998423CBF4FF0FF3323612369B3F1FF3F04D12268013323616261E3832169E28B451A954234BF2B4613463BB1C9
:401280006069C918C018D21A60612161E283ED1A0DB9284615E002AB43F8045D31466269A068FFF79DFF6061019B21690246C91A4D19256123B9A0683146FFF75FFFE083B3
:4012C00001987CBD13B502AC44F8043D2346FFF787FF019B002B18BF00201CBD2DE9F0410746884615461E460024384641462A460123FFF7E7FF30B1BA6B0134944201D809
:401300000546F2E7002406B134602846BDE8F0812DE9F74F04460D461E461746002A00F0B98090F836001146FFF779FDB4F81EA0A36A20FA0AFA9A45814680F0AB80638E41
:4013400004F118089A44284651464246FFF7B9FE2846FFF79CFC6B7B002B40F09B80A38BAA68013B09EA03091FFA89F303EB020926B9216C8F4203D2276401E0791C216447
:4013800094F8361010290AD0202911D1484600F05CFF31460746484600F062FF4EE0484600F06CFFB1B20746484600F063FF45E0284600920193FFF713FB009A019B17F000
:4013C000010F13F802B01BD00BF00F0141EA06119954A28B013A934202D009F1010309E028460AF101014246FFF76BFE2846FFF74EFCAB681F7832093F0147EA1B171CE081
:401400009E54A28B013A934202D009F1010309E028460AF101014246FFF753FE2846FFF736FCAB681A78310A02F00F0701F00F0122F00F024BEA07270A431A702846FFF74A
:40144000CFFA94F83630202B18D1B4F84620AAB9B4F844102846FFF7FBFB2846FFF717FCA8684FF0FF3100F5F47000F0F9FE2846FFF7B6FA4FF00103A4F84630E36BB3F11D
:40148000FF3F09D00FB10133E3632EB1E36B013BE36301E0012000E00020BDE8FE8F6FF07043FFF735BF70B5036D04460E4693B1002506E0AA1820463146531CFFF728FF4F
:4014C0000135236DA26C013B9D42F3D320463146AA18FFF7E4FF0023A3642365E364636570BD70B506460D461C460AB1FFF710FF304629462246BDE87040FFF7D0BF0000C4
:401500002DE9F84504460E4615461F46002B36D01C4B93F88030022B31D190F8368011464046FFF77CFCB4F81CA00AF1FF3A2AEA000A4FEACA0ABAFBF8FAAA44A8460EE037
:40154000204631464246FFF7BFFD50B9A36C0BB9C4F84880E36C08F101080133E364D045EED9E36C5BB167653B685A6922B1204631462B46FFF7CCFE236D01332365BDE8ED
:40158000F88500BFD8D1FF1F2DE9F8459846274B054693F880300F46022B1646846B19D1436D984503D0C36C0BB1FFF77CFFB8F1000F0FD06B6D43450CD12B6DEA6C9A42EE
:4015C00004D9AC6C1C1901332B652CE028463946FFF769FF012E04F1010A01D9564505D92E6C012E01D9564500D902263446284639462246FFF768FD50B101345445F6D91D
:4016000002240DE0284639462246FFF75DFD30B92846394622464346FFF772FF03E00134B442EFD300242046BDE8F885D8D1FF1FF8B507460E461546FFF7A6FF044628B11A
:40164000384631462A462346FFF74BFF2046F8BDB2F1FF3F73B504460D4614D0561A013611D0FFF705FB084B00211A8AA06800F071FD022300936068A3682946324600F059
:40168000E9FE0023E3737CBDD8D1FF1F2DE9F84F984690F8363004460C2B0D4616465AD04FF0FF3AD1463CE094F836003146FFF7B6FBB4F81CB0678E0BF1FF3B10EA0B0B09
:4016C000E38B1DD1D840013F3F18022228463946FFF7BEFAA38BAA689B0852F80B1079B9013B0BF1040BF8D13BE0494628465246FFF7AEFFB946BB462846FFF774F9DA4652
:401700002946324601232046FFF7DCFD29460746324620460023FFF7FBFD2FB108F1FF383E46B8F1000FBFD1284649465246FFF78FFF13E02946324601232046FFF7C2FDB0
:4017400029460746324620460023FFF7E1FD2FB108F1FF383E46B8F1000FEBD14046BDE8F88F0AF1010B5F45BFD1C5E72DE9F8450546FFF70BF9044608B90546D0E028462B
:4017800000F094FE684E338A834208D338B10021284622460B4600F018FE002804DA2046FFF70AF90025BBE004F5FF7000F066FD4AF65523984240F0AD8004F10B0000F09E
:4017C0005DFD10F47E4F074600F0A480338A8342C0F0A080237C022B40F09C8094F80D80B8F1000F00F096800021402205F1180000F0B0FC04F1130000F040FD064620B995
:4018000004F1200000F021FD064604F1160000F035FD824680B904F1280000F02FFD10F08F0F77D104F1240000F00FFD824604F12C0000F00AFDE862022385F83530C5F8E9
:4018400028A0AE6185F8348004F10E0000F016FD688604F1110000F011FD95F835206B8E288602FB0A3A7A0992B2B0FBF2F25244AF832A62092301219940B94201D1EB8392
:4018800002E00133102BF6D108FB07F7B61AB6FBF8F6AE636F623046FFF7F7FA202818BFC5F82CA04FF0FF33202885F83600EB6332D104F1300000F0E1FC00230146A5F803
:4018C00044002246284600F080FD002822DB204600F0BBFC804604F5F27000F0B6FC074604F5FE7000F0B1FC104B984514D1104B9F4211D10F4B98420ED104F5F67000F07E
:40190000A4FC286404F5F47000F09FFCB04203D8E86301E0002500E001252046FFF74CF82846BDE8F88500BFD8D1FF1F5252614172724161000055AA00238B60837F202B93
:4019400001D102B942694A600A60704783680133836070472DE9F0410C46202105461F469DF818604FF0000800F0F4FB10E014F8080036B9E52804D1B8F1000F01D1E03877
:4019800002E000F045FCC0B205F8080008F10108B845ECDBBDE8F0812DE9F74506460D4608462849002A14BF92464FF0FF3A00F007FC804650B930462946022200F09DFD6F
:4019C000B01C2021092200F0C5FB37E04FF0FF34002715F80780B8F1000F01D0574505D1B4F1FF3F08BF3C4664B925E04046FFF75FFA08B3B8F12E0F08BF3C4601370D2F3F
:401A0000E7D119E0082C17DC3F1B042F14DC30462946082223464FF00008CDF80080FFF799FF0123611C009306F10800691803227B1EFFF78FFF01E04FF001084046BDE875
:401A4000FE8500BFAC3E00002DE9F74FD2F808B0436A4FEA4B18B8FBF3F8D368054698450E461446D2F8009001D20023D360B5F81EA0E368AAF1050A0BB9D4F804902BFA38
:401A80000AF7B9F1000F17D095F83420B8EB0303019206D04A4628463146FFF713FC814640B3494605F11800FFF7FCF9019B591E01EA0707C11906E02B8E43FA0AF39F4236
:401AC00018D2E96A79183046C4F80090C4F80C800122FFF7BDF83046FFF7D9F850B9013000FA0AFAB3680AF1FF3A0AEA0B0B03EB4B1000E00020BDE8FE8F2DE9FF41074654
:401B00000E4601A811461A460A9D9DF82C40FFF743FFC8B9384631462A46FFF795FF8046A0B1037883B101A90B2200F003FB38B998F80B3004EA0302A24201D1082B05D1A8
:401B40002846FFF703FFE5E74FF00008404604B0BDE8F0812DE9F04587B002AF04460E46154698469DF83CA039460E9A1830FFF7E3FE204631462A4643460097CDF804A005
:401B8000FFF7BBFF07B0BDE8F0852DE9F04500F1180785B005460C46384669469246FFF7CBFE284621466A46FFF74EFF06466846E846FFF7CBFE002E37D1BAF1000F02D141
:401BC0002B8E002B35D12146009A00232846FFF785FB2146024600232846FFF729FD80462046FFF750F8B8F1000F22D0AA8B0021A06800F0AFFA38464146FFF753F995F8B8
:401C0000347000257E1E361808E0314620460122FFF71EF82046FEF7F7FF013E01357B1BB3F1FF3FF1D1A66803E033780BB1E52BB7D1304605B0BDE8F08538B504461A3047
:401C400000F01CFB054604F1140000F017FB45EA004038BD2DE9F0451D4685B007460E462A6010465C21904600F0D9FA4FF0000A0446A04508D108F10108C5F80080404613
:401C80005C2100F0CCFA044694B1C8EB0403002B0EDD10220192103A0292384631464246CDF800A0FFF77EF970B1FFF7C6FF824628685C2100F0B3FAA04604460028D8D151
:401CC0000C9B0130C3F800A005B0BDE8F085F8B505460C461E461746DAB16FF01A0313700846FEF77DFE16B94FF47A7608E007F11C0000F0AAFA6B6A5E1E3618B6FBF3F6C4
:401D00003846FFF79AFF2146024633462846FFF7BDFC607BF8BD00002DE9F04FD1F8008093B0D8F808700BAD044608930E464FF0FF333946284609920F939DF870A0FEF772
:401D40008DFE10AB009338462946224611ABFFF781FFD0B1F27A109B07920FAA00930292002338462946119A0193FFF71BF9044680B1C37A13F0100F07D10D9BDDF82CB08E
:401D8000C3EB00094FEA691906E02846FEF772FF0125A3E083468146099B002B3CD0002C33D0524B5D6912E02B687BB1AA7A6AB19A8B4A450AD19A695A4507D19B68BB4258
:401DC00004D14FF6F772328100257EE0ED68002DEAD10DF12C0C6146384622460123CDF818C0FFF774FFDDF818C018B14FF0FF3333816AE03E4B1B68DC6824B138466146D1
:401E0000109A0F9BA0472C4606E0BAF1000F03D1089A002A44D065E0089BEBB1CCB1E37A13F0010F0BD0079A12F0150F07D04FF6FA733381BAF1000F01D1012500E000259A
:401E40002046FFF7FAFE074604F11C0000F0FDF929E0BAF1000F45D0BAF1010F01D000251BE0ECB900F062FC214B20221B68019282B2000C03920490009402949D68384679
:401E80000BA9119A109BA84750B10D9ADDF82CB0C2EB00094FEA6919254628462F4602E00125002007464FF0FF33C8F81030C8F818B0A8F81C90079AC8F8040012F00103EC
:401EC00008BF1846C8F800707060B6F908300BA835EA230528BF0125FEF7CCFE284613B0BDE8F08F01255046DCE700BFD8D1FF1F1481FF1F70B505460C461A3089B200F0CC
:401F0000B9F905F11400210CBDE8704000F0B2B92DE9F0470446BDF824700D469146002120229A46BDF82860DDF8208000F012F90B222046294600F0E0FA04F10E003946C0
:401F400084F80BA000F096F904F11000314600F091F904F11600394600F08CF904F11800314600F087F920464946FFF7C3FF04F11C004146BDE8F04700F072B907B5426830
:401F800003460AB910460AE081680020009048681968DB6800F03CFA003818BF01200EBD2DE9F04F0368B0F9085095B0044689469F68002D40F0B78041685868814203D3EB
:401FC0004FF0FF312181AFE0411A8A4228BF0A46029222B94FF0FF322281029DA4E01B68002B00F0A080394610AE0CA8FEF736FD39463046FEF732FDD4F800B0029ADBF863
:402000000870AA4607F118030693796A4FF0FF330591099508930A96049220460CA9FFF70DF900286ED1DBF81030059901334B43626804999B1A994228BF19460391BB8B2B
:40204000DBF81410013B134006980193FEF72AFFF98B656897F8342035FA01F1013A019B02EA0101CDF81CB000EB01081E46BB46BBF81C30039A9D1B954228BF15469D423A
:4020800011D010AF384641460022FEF7E1FD3846FEF7FDFD002835D11299484671182A4600F02BFA12E0099B089A9A1890450BD008A8FFF763FF00283AD10123CDF8208046
:4020C0000993CDF82C9001E001330993049B03995B1B04936368A9445B19491BAA446360039103D008F101080026C1E7049A5F46DDF81CB0002A90D108A85546FFF73EFF65
:40210000B0B900E05546029B9D4205D0B4F9083013B94FF6F97121810CA8FEF7ABFD10A8FEF7A8FD00E00025284615B0BDE8F08F0025EBE710B5002308E0C45C11F803C0B6
:40214000013A0133644501D0012010BD002AF4D1104610BD70B5034602E003F8011C013A1C4622B103F003050133002DF5D193081ED04FF001354D4308E044F8105C44F822
:402180000C5C44F8085C44F8045C043B032BA44604F11004F1DC1C46002603E04CF80650013B0436002BF9D102F003020CEB8404002302E0E154013A0133002AFAD170BD9D
:4021C000002310F803C0CA5C624501D0012070470133002AF5D110467047002300E00133C25C002AFBD11846704710B500230BE0C45C11F803C0644501D0012010BDC418E7
:402200006478013314B1013A002AF1DC002010BDA0F16103192B98BF00F0DF007047C9B203E00BB918467047013003788B42F8D1704742780178431C42EA01205A789B78A0
:4022400042EA002043EA002070478378C27803EB0222437803EB0222037803EB0220704703460A0A03F8011B42700A0C090E5A70997070470170090A4170704742780378BA
:4022800043EA022070470000094A0A4BC11C10B5146821F0030118680919814201D9002010BD11609A685868013220189A6010BD5CD2FF1FA881FF1F08B5FFF7E5FF00B9C9
:4022C000FEE708BDFFF7E0BF30B1044A9368013B93600BB9024A1360704700BFA881FF1F5CD2FF1F014B586019607047A881FF1F38B50546FFF7E0FF002104462A46FFF761
:4023000029FF204638BD000010B5084CA37C0BB1002010BD4FF40073238200F0F9F9A37C012043F00103A37410BD00BFD8D1FF1F08B583680BB10020984708BD08B583684B
:402340000BB10120984708BD10B504680079A468A04710BD37B59DF81850046800790095E468A0473EBD08B5036800799B69984708BD036810B55B69044623B1007998472E
:4023800008B1002000E00120607110BD10B5437904460BB9FFF7EDFF607910BDF7B504461F460E461546FFF7F1FF2046FFF7C6FF2A463146012320460097FFF7C5FF054670
:4023C0002046FFF7B5FF2846FEBD10B504690919BDE81040FFF7E2BF2DE9F341044615461F460E469DF82080FFF7D0FF2046FFF7A5FF2B4631463A462046CDF80080FFF719
:40240000A3FF05462046FFF793FF2846BDE8FC8130B504699DF80C5009190395BDE83040FFF7DABFF7B5044615461F460E46FFF7ADFF2046FFF782FF0123009331462B4668
:402440003A462046FFF786FF05462046FFF770FF2846FEBD30B504699DF80C5009190395BDE83040FFF7DEBF73B504460E461546FFF78CFF2046FFF761FF00232A46009393
:40248000314601332046FFF765FF05462046FFF74FFF002D14BF4FF0FF3000207CBD10B504690919BDE81040FFF7DEBF30B5054685B0FFF76BFF2B6828791C694FF47B716C
:4024C000002201ABA04708B1002001E0BDF80C0005B030BD70B506460D46FFF757FF336830791C694FF47B7100222B46A047002814BF4FF0FF30002070BD11F0030F70B59A
:4025000084460B4632D110F0030F2FD195100446AC4611E053F8106CACF1040C44F8106C53F80C6C44F80C6C53F8086C44F8086C53F8046C44F8046C10341033BCF1030FDA
:40254000E8D8AB081B0100EB030CCB1815F003050AD0284600215C584CF8014004310138F9D1AD00AC445B1902F0030213F0010F19462FD11CF0010F60462BD15410254601
:4025800010E031F8086C043D20F8086C31F8066C20F8066C31F8046C20F8046C31F8026C20F8026C08300831032DEAD8A108C9005B1814F003048C440AD0204600215D5A23
:4025C0002CF8015002310138F9D16400A4441B1902F00102614610E013F8040C043A01F8040C13F8030C01F8030C13F8020C01F8020C13F8010C01F8010C18460433032AA0
:402600008C4601F10401E7DC32B10023C15C0CF8031001339342F9D170BD0378E92B01D101207047EB2B01D0002070478078902814BF00200120704708B500F5FF70FFF74B
:402640001DFE4AF65523984214BF0020012008BD01EB001000F5E370FFF7F7BDF0B50D4685B01446064658B352B300210B46FFF795FE002824DB2046FFF7DEFF00B320468F
:40268000FFF7CBFF10B10024274616E02146FFF7DFFF074604F5E570FFF7D7FD01A904463046FFF717FF5CB157B1E219FF23120AB2FBF3F2029B9A4202D81DB12C6001E08E
:4026C0004FF0FF37384605B0F0BD000073B50446FFF7ECFE0646FEF759F90C4B05461B8AB3420DD366B1204601A92A46FFF7B6FFB0F1FF3F04D02061019B6361002400E0AA
:40270000FF242846FEF758F960B27CBDD8D1FF1F08B504484FF48051FFF7E4FD0248FEF75BFB08BDB481FF1FF83E00004FF40410704700BF4FF6FF7070470000014B1868D5
:40274000704700BFB491FF1F00487047183F000000F018BD37B501220DF10701054600F017FD9DF80740FF2C14BF0A240724284601220DF1070100F00BFD9DF80700FF287C
:4027800003D1013CE4B2002CF1D13EBD37B50469857828460DF10701012200F0F9FC9DF807300BB1002003E0013CF2D14FF0FF303EBD37B54FF0FF3305460C468DF807300D
:4027C00006E028460DF10701012200F0EFFC013C002CF6DC3EBD000038B5094C2368032B02DD4FF0FF3509E0DDB2013323601420FFF77EFD04EB850460608570284638BD9A
:40280000B491FF1F08B5034B4FF400711B68984708BD00BF1881FF1F4FEAD20CACEBD103CCF10F0C10B501336044002410F801CB013B4CEA0424F9D101F00703511A0222FC
:402840008A40DC40013A04EA020010BD7FB5130E85788DF80530130C01F03F018DF80630130A41F040018DF8073000238DF808208DF804101A4601A911F802C000215B005E
:40288000DBB283EA0C0E1EF0800F18BF83F009030131082904D04FEA4C0C5FFA8CFCEEE70132052AE7D15B0043F001038DF809308678C4680122304603A900F069FC9DF8D0
:4028C0000C30FF2B04D00CB9FF2009E0013CF1E7284601A9062200F069FC2846FFF73AFF04B070BDF7B5847806460F4620460121FFF75FFF204600F0E5FB3046092100228C
:40290000FFF7A4FF8DF8070028BBF6680546012220460DF1060100F03BFC9DF80630FE2B06D0FC2B04D00135ADB2B542EFD112E00DF1070520463946102200F029FC294689
:402940002046012200F024FC29462046012200F01FFC002500E0FF25204600F0BDFB20460121FFF726FF2846FEBD00002DE9F04F9B46494B89B003EB800305925C684A029D
:40298000029103924FF00309029AA578E678039B2846022E08BF13461E4600F09DFB01212846FFF706FFBBF1010F0CBF4FF0110A4FF0120A284600F085FB2046514632462B
:4029C000FFF744FF002851D1059F5E46A378E268B44604924FF000081E460FE0012230460DF11F01CDF804C000F0D2FB9DF81F20DDF804C0FE2A05D008F10108049B984598
:402A0000ECD333E0284639464FF40072664600F0BFFB0222284607A900F0BAFB9DF81C30384601939DF81D80FFF7ECFE4FF6FF729042019B0CD048EA0328404508D0BAF17B
:402A4000120F13D120460C210022FFF7FFFE0DE0013E02D007F50077B8E7BAF1120F07D120460C213246FFF7F1FE01E04FF0FF36284600F031FB28460121FFF79AFE3EB119
:402A8000B9F1000F02D009F1FF397DE74FF0FF36304609B0BDE8F08FB491FF1F2DE9F04F99464C4B87B0029203EB80039DF840205D68009103926B78002B40F085804B0254
:402AC00001930327009BAC78EE78019A2046022E08BF1A46164600F0FFFA01212046FFF768FEB9F1010F0CBF4FF0180A4FF0190A204600F0E7FA284651463246FFF7A6FEDC
:402B00008DF81700002850D120460121FFF751FE029ECB46B8463046FFF774FE0DF11707BAF1180F0CBFFE23FC2301228DF817308DF81500030A394620468DF8143000F029
:402B400035FB204631464FF4007200F02FFB0222204605A900F02AFB01222046394600F017FB9DF8173003F01F03052B1CD12846FFF70CFEC0B9039A0AB906F50076BBF1B0
:402B8000010BC8D1BAF1190F474611D106A96FF00203204601F8013D012200F007FB2846FFF7F4FD20B100E047464FF0FF3600E00026204600F090FA20460121FFF7F9FD08
:402BC00026B10FB1013F7DE74FF0FF36304607B0BDE8F08FB491FF1F2DE9F04F877887B0044638460D4600F06DFA20463A210022FFF72CFE064638B1384600F06DFA3846EA
:402C00000121FFF7D6FD58E00DF1140804224146384600F0BDFA4046FFF70BFB8046384600F05AFA01213846FFF7C3FDB8F1000F28F07F02B8BF4FEA987BD2B240F2726386
:402C40004FEA1828B8BF0BF0010B1FFA88F8002A14BF1A460022012111EA080F05D10136F6B24900102E89B2F6D140F27260824233460DD06422724302F5FA6208E011EA44
:402C8000080F07D049000133013689B2DBB2F6B20F2EF4D964214B434FF6FE7103F5FA6302EA01014FF6FC72384603EA020200F04BFA10F0FF0F40F099804FF0FF3092E060
:402CC00028467E217F22FFF7A7FD8246EB78DFF82C8103F0030203F0780308EBD30358F822101B7C3846594389B200F001FA0646002877D06B7803F00702DB1003F00F03CB
:402D000008EB82024344126A93F810800292B8F1000F67D0A978284603911C221A21FFF77BFD0190BAF1000F1FD1502153222846FFF772FD4FF0010909FA00F92F21312295
:402D40002846FFF769FD1FFA89F982463E21284649224FEA5929FFF75FFD0AF1020A09FA0AF9013000FB09F910E0BAF1010F01D0012038E0284630214522FFF74DFD4FEA52
:402D80008029BBF1000F01D00223E37008FB06F2029B0399B2FBF3F2642303FB01225A437343D208DB089A4294BFE260E360FA235E43019BF6089A400C21B24294BF22610B
:402DC000266128460D22FFF727FD0546384600F08DF94FF4007128436070A180C4F80890002000E0FF2007B0BDE8F08FE378A778012B3FF465AF4FF0000A67E7B03E000086
:402E0000F0B5857887B004464FF4C871284600F06FF9B0F5C87F00F2CC804CF25033E3600026284600F058F90A212846FFF7C1FC624B93E8030001902846ADF8081000F007
:402E400041F9062201A9284600F0B0F92846FFF781FC0746284600F03FF901212846FFF7A8FC17F0010F03D10136052ED9D1A0E0284600F027F9082120464FF4D572FFF745
:402E8000E5FC10F0040F52D0284600F025F9A5784FF4FA66284600F015F9002237212046FFF7D4FC28460121FFF783FC292100222046FFF7CBFC0746284600F00DF92846FB
:402EC0000121FFF776FC17B90123E3701EE017F0040F01D1013EDDD14FF4FA66284600F0F1F8012100222046FFF7B0FC0746284600F0F2F828460121FFF75BFC0FB9E77063
:402F000004E0012F55D1013EE8D152E001AD20462946FFF7E7FC00284BD120462946FFF75BFEC0B2002844D10123237043E00422A07805A900F02CF9284600F0CDF89DF827
:402F40001730AA2B35D19DF8163003F00F03012B2FD1A5784FF4FA66284600F0B3F8002237212046FFF772FC28460121FFF721FC29214FF080422046FFF768FC07462846AD
:402F800000F0AAF828460121FFF713FC0FB1013EE2D101AE20463146FFF7A4FC48B90125E57020463146FFF717FEC0B208B9257001E04FF0FF3007B0F0BD00BFF03E00004A
:402FC00010B5084B03EB80035C6823783BB9FFF7BFFB20B12046BDE81040FFF711BF4FF0FF3010BDB491FF1F38B51D46154BA1F57B7103EB80035C68072918D8DFE801F076
:403000000A17171704041719204600211422FFF7A1F80CE0237833B92046FFF7F1FE10B14FF0FF3038BDA3882B81A3686B60002038BD2046FFF748F9024B00201A68013A52
:403040001A6038BDB491FF1F10B580B9104B1B78EBB901240E4B1C7000F038F93B20214600F050F900F024F900F014F910BD084B1B7863B90124064B1C7000F027F93B2082
:40308000214600F03FF900F013F900F003F910BDC891FF1F08B550B9084600F0B7F800F0A9F810F0010FFAD000F0BCF808BD084600F0ACF800F09EF810F0010FFAD000F09C
:4030C000B1F808BD08B510B900F088F908BD002000F084F908BD00BF08B518B9012000F07DF908BD012000F079F908BD0020704738B50D46B1F5C87F04D342F6E063994242
:4031000003D804E04FF4C87501E042F6E0656C00A4B245F6C053B3FBF4F448B900F0D6F8601E80B2012100F0EDF800F0C1F808E000F0CCF8601E80B2012100F0E3F800F014
:40314000B7F8284638BD00BF032809D840F6E44399420FD840F6E3439A420DD80020704740F6E443994209D840F6E3439A4207D800207047002070470120704700207047D2
:403180000120704708B5FFF75FFF022008BD00BFF8B507460D4614466E1C3846FF21FFF779FF28703546013CF6D1F8BD70B5064614464D1C30460978FFF76CFF2946013C3F
:4031C000F7D170BD08B5FDF7BFFA094A137843F0200313700132137843F010031370FB32137843F010031370FDF7B2FA08BD00BF9C640040014B1878704700BF6D640040EA
:40320000014B1878704700BF68650040034B1B7813F0040FFAD0024B187070476D6400404D640040014B1878704700BF5D64004008B501E00A4B1B780A4B1B7813F0200FED
:40324000F8D1FDF781FA084B1A7842F001021A701A7802F0FE021A70FDF77AFA08BD00BF5D640040686500409D64004008B50F22064B1A70FFF7DCFFFFF7BCFFFFF7C0FF29
:403280000023034A1370FB32137008BD8C6400408D64004008B5054B1B7823B9FFF7E6FF0122024B1A70FFF78DFF08BDC991FF1F054A137843F0010313701032137843F0A1
:4032C00001031370704700BFA2430040054A137803F0FE0313701032137803F0FE031370704700BFA2430040014B188880B2704780400040024B187800F00700704700BF5D
:403300008240004070B505460E46FFF7F3FF0446FFF7EAFF854256D02B4B1B7803F0010294B900B185B938B9284B1D80284A137803F0BF03137070BD254A137843F04003BB
:403340001370224B1D8070BD22B3002321490B7001240F310C7004310B700C390B7803F07F030B701A4B1B7813F0080F00D08DB9194B18800721013B1970164B1B7813F065
:40338000010FFAD110490B7803F0FE030B700021104B19700C4B1B7813F0010F0DD00E4B1D800EB1032200E001220A4B1A70094B1B7813F0010FFAD170BD044B1D80024923
:4033C0000B7813430B7070BDA243004080400040824000400140004002400040044A137803F0EF03000100F01000184310707047C0510040014B1868704700BF7C81FF1F23
:403400000E4B70B51E460E4C0025E41AA410A54204D056F8253098470135F8E700F09AFD084B094C1E46E41AA4100025A54204D056F8253098470135F8E770BD603F00009F
:40344000603F0000603F0000683F000010B5431E0A44914204D011F8014B03F8014FF8E710BD03460244934202D003F8011BFAE7704700000EB400B54FF402719CB0ADF8FD
:4034800014106FF00041049107914FF6FF711DABADF81610084953F8042B02900690086802A9019300F064F8029B00221A701CB05DF804EB03B070477C81FF1F2DE9F047BA
:4034C0008E688246B3420C469046994640D38A8912F4906F3AD02568096902236F1A656905EB450595FBF3F57B1C4B449D4238BF1D4653050FD5294600F030FB064698B1F6
:4035000021693A46FFF7A2FFA38923F4906343F08003A38113E02A4600F076FB064670B95046216900F0D6FA0C23CAF80030A3894FF0FF3043F04003A381BDE8F0872661C9
:403540003E4426604E466561ED1BA560B14500D24E4632462068414600F0A0FAA36800209B1BA36023681E442660BDE8F08700002DE9F0439DB003938B8906461C060D46FB
:4035800090460CD50B6953B9402100F0E7FA2860286110B90C233360CCE040236B610023099320238DF8293030238DF82A3043461C4613F8012B1AB9B4EB08090FD002E0B3
:4035C000252AF5D1F8E73046294642464B46FFF775FF013000F0A980099B4B4409932378002B00F0A28000234FF0FF3204930793059206938DF853301A9304F1010844464D
:40360000DFF8489121784846052200F039FA08F10108049B30B1C9EB00000122824013430493ECE7D80644BF20228DF85320190744BF2B228DF8532022782A2A02D00799AB
:4036400023460EE0039A0134111D12680391002ABBBF524243F0020307920792B8BF04930AE01C4622780133303A092A03D80A2000FB0121F5E7079123782E2B1AD163782E
:403680002A2B0AD1039B02341A1D1B680392002BB8BF4FF0FF3305930CE0611C00220C4623780131303B092B03D80A2000FB0232F5E70592DFF8988021784046032200F0F9
:4036C000DFF938B1049AC8EB00004023834013430493013421781A48062204F101088DF8281000F0CDF988B1164B33B9039B073323F007030833039313E003AB00933046E6
:4037000004A92A46104BAFF3008007E003AB0093304604A92A460C4B00F092F8421C074603D0099B3B44099341E7AB895B0601D4099801E04FF0FF301DB0BDE8F08300BF00
:40374000283F000000000000BD3400001E3F0000243F00002DE9F84391461F468A680B6906469342B8BF1346C9F8003091F843200C46DDF8208012B10133C9F80030236836
:40378000990642BFD9F800300233C9F80030256815F006051CD094F843302268003318BF012392061FD5E118302081F843005A1C94F845102244023382F8431013E0304649
:4037C000394604F119020123C047013007D00135E368D9F800209B1A9D42F0DBDBE74FF0FF30BDE8F8833046394604F14302C0470130F4D02268D9F80050E36802F00602CB
:40380000042A08BF5D1B2269A3680CBF25EAE57500259342C4BF9B1AED184FF00009A9450ADA3046394604F11A020123C0470130D5D009F10109F2E70020BDE8F8830000DC
:403840002DE9FF410C461746227E98466E2A06460A9B01F1430100F0B08012D8632A23D00AD8002A00F0BD80582A40F0CC8084F84520DFF804E257E0642A1ED0692A1CD075
:40388000C1E0732A00F0B18009D86F2A2ED0702A40F0B980226842F0200222603FE0752A24D0782A3BD0AEE01A6804F14205111D1960136884F84230A9E020681A6810F080
:4038C000800F02D0101D186008E010F0400F02F10400186002D0B2F9003000E01368002B3EDA2D225B4284F8432039E020681A6810F0800F02D0101D186007E010F0400FA7
:4039000002F10400186001D0138800E01368227EDFF864E16F2A0CBF08220A221CE07822DFF858E184F845202268186812F0800F00F104051D6003D1550601D5038800E0D2
:403940000368D00744BF42F0200222601BB9226822F0200222601022002084F8430002E0DFF814E10A226568002DA8BF2068A560A4BF20F00400206003B965B10D46B3FB75
:40398000F2F002FB10331EF8033005F8013D03460028F4D100E00D46082A0BD12368DA0708D5236962689A42DEBF302305F8013C05F1FF35491B21612EE025681A6815F013
:4039C000800F606903D0151D1D60136808E015F0400F02F104051D60136801D0188000E01860002323610D4616E01A68111D1960156800212846626800F042F808B1401B54
:403A00006060636804E004F1420584F8422001232361002384F84330CDF800803046214603AA3B46FFF796FE013002D14FF0FF301FE0304639462A462369C0470130F5D00A
:403A400023689B0705D4E068039B9842B8BF18460FE00025E368039A9B1A9D42F3DA3046394604F119020123C0470130DED00135F0E704B0BDE8F0812F3F0000403F00007B
:403A800010B5C9B202449042034605D01C7801308C42F8D1184610BD002010BD814210B501EB020301D3421E0BE09842FBD28118D21AD34204D013F8014D01F8014DF8E7F0
:403AC00010BD994204D011F8014B02F8014FF8E710BD000030B500293CD051F8042C0B1F1D49002AB8BF9B180A680C4612B95A600B6030BD93420DD219685818904201BFB0
:403B00005A5852181A60426823605A6030BD994203D80A4651680029F9D1146815199D420AD11B682344D0188842136012D10868034413604B680CE002D90C23036030BDF0
:403B40001C681819884201BF08684968001918605960536030BD00BFD091FF1F70B5CC1C24F0030408340C2C38BF0C24002C064603DA0C233360002070BD8C42F9D3204A92
:403B8000136810461946A1B10A68121B0ED40B2A03D90A608B188C501FE08B420BBF5A684A6802605A6018BF0B4616E00B464968E9E7144D2B681BB9304600F04BF82860F9
:403BC0003046214600F046F8421C0346D1D0C51C25F0030585420AD11C6003F10B001A1D20F00700821A0AD05142995070BD3046E91A00F02FF80130BBD02B46ECE770BD2D
:403C0000D091FF1FCC91FF1FF8B5074615460E4621B91146BDE8F840FFF7A0BF1AB9FFF759FF2846F8BD00F025F8A8420ED238462946FFF793FF044650B131462A46FFF7C6
:403C400005FC38463146FFF745FF01E03046F8BD2046F8BD38B5064C0023054608462360FCF750FB431C02D1236803B12B6038BD60D2FF1F51F8040C0028BEBF091851F888
:403C8000043CC01804387047000000005468756E646572636174732061726520474F210A0000000030312E77617600007262000046696C65206F6B6179210A0046696C658B
:403CC000207479706520256C780A000046696C652073697A6520256C640A0000466F726D617420256C780A005375624368756E6B31494420256C780A000000005375624318
:403D000068756E6B3153697A6520256C640A0000417564696F466F726D61742025640A004E756D4368616E6E656C732025640A0053616D706C655261746520256C640A00B8
:403D4000427974655261746520256C640A000000426C6F636B416C69676E2025640A00004269747350657253616D706C652025640A0000005375624368756E6B32494420AB
:403D8000256C780A000000005375624368756E6B3253697A6520256C640A0000256C640A00000000446F6E65210A0000004F00401800105100401000305100402000F051B7
:403DC0000040100000000140000A800A0140800500140140000800400140000A004C01400002005001402000000A0140EC050048800000006C3E0000080001006E3E00004D
:403E00000A000100713E000014010001733E000016010001763E000015000101783E0000170001017B3E0000180001007E3E00001A000100823E00001A000100863E000007
:403E40001C010001893E00001E0100018D3E00001E010001913E00001D000101943E00001F000101983E00001F000101720072620077007762006100616200722B00722B86
:403E8000620072622B00772B00772B620077622B00612B00612B620061622B0055100000950F00003B0F0000000000002E2E00000A00000064000000E80300001027000050
:403EC000000A0C0D0F14191E23282D32373C41508096980040420F00A086010010270000E8030000640000000A00000001000000400000000095000049270000D92700005B
:403F00006D2900009D2A0000E92F0000C12F0000512700003D2700006D6D63004300232D302B2000686C4C006566674546470030313233343536373839414243444546002F
:403F40003031323334353637383961626364656600000000F8B500BFF8BC08BC9E4670474D00000081030000F8B500BFF8BC08BC9E46704729000000883F00000881FF1F79
:403F800078000000E8500000000000000100000068D2FF1F9C3E00003527000000000000000000000000000000000000000000000000000000000000000000001C3F000067
:403FC0000000000000000000000000000000000000000000000000000000000000000000000000000000000000000000000000000000000000000000000000001C81FF1F06
:404000000000000000000000000000000000000000000000000000000000000000000000000000000000000000000000000000000000000000000000000000000000000080
:404040000000000000000000000000000000000000000000000000000000000000000000000000000000000000000000000000000000000000000000000000000000000040
:404080000000000000000000000000000000000000000000000000000000000000000000000000000000000000000000000000000000000000000000000000000000000000
:4040C00000000000000000000000000000000000000000000000000000000000000000000000000000000000000000000000000000000000000000000000000000000000C0
:020000040003F7
:0200000480007A
:40000000044F00400652004003640040016500400103014049080140440901401D0A0140480B0140510C0140490D01404E0E01402A0F01404918014041190140021B014000
:4000400005410140054201400343014005440140074501400446014001470140014C01400550014001800A4B0D10164B0040100211021401308031A089728B0F8C0F89385B
:40008000EA080101040C060209020A0A0E0410011602170119011E062E0C31033201360E39023A803E044023410145EC47B0482349FF4AFF4BFF4EF04F44500C580459046F
:4000C0005A045C225D025F0166C06A406B02813C83C28402851889088C028DFF918095E796019718980299C09D10A1DCA321A601A704ABE3AD44B11FB202B3D8B401B53822
:40010000BB0ABE10D602D711D804D904DB04DC22DD20DF0100080140051406010A040B200D880E801220174018041A101B081D801E011F04202021112209274028022A0209
:400140002B283080321A3514386839023E214588462047204D024F0457025920680469406A04709C73087D807E028D088E02910892209322944095209615970498029A39B7
:400180009D169F80A140A320A404A608C0E5C2B6C484CA0FCC6FCEAFD070D6048004840288039C03A601B404B603B880BE50C001C740C9FFCA07CBFFCC40CD20CEF0CF051B
:4001C000D008D401D804DA04DB04DD22DF01E040E1A8E240E3200084010103080516080109020A080B010E01102811401280162018201D801E0820042102220428042940D1
:400200002A042B8030283102328038253940404041104210458049804A085104531056215D225E085F806520670490019141922093039404960C980699C09A1C9C01A068B5
:40024000A140A280A3A8A404A502AC20AF04B006B101B601C07FC28BC42FCA0FCC0FCE0FD017D20CD6F004030604090310051202130118011A061D03210325032C042E0348
:400280002F0333023501360737023A803F545602572C580459045B045F0184F885038C908E2C90489101923593029420950196C2970298F8B018B102B2E0B401B606B701EA
:4002C000BE40BF41C034C101C260C405C5BEC6F0C7DCC83BC9FFCAFFCBFFCC22CEF0CF08D004D409D804D904DA04DB04DC02DF01E2C0E440E501E610E711E8C0E901EB1195
:40030000EC40ED01EE40EF010008030204040608070808020A240D020F08160219801A201B221F4021802380260427092C202D413102330835403602380439083E104106E9
:40034000438049054A054B0152165305582059045B816180660267806C286D416E107440754077027D807F02900194049549960897099C019D419F02A280A38CA428A502EB
:40038000AE08B110B201C025C25EC480CAD0CC93CE22D00BD20CD60FD88800DC01010420050806D0076108110A220B400C040D01102011A2128F130814211504164E180877
:4003C00019011D0120DC211024D4260828D029072A0C2BD82CDC2D01320F34F035E0360F373F39803A203F40580459045F0180218108820285118601870C88E08F08908886
:40040000911A9203930195069AEC9D109E129F08A109A312A404A508A643A908AD08B210B40FB507B6E0B718B928BB80BE40BF04D804D904DF010101032904020504070858
:4004400009060B080D020E080F01102811401302150818021BAC1D041E09200121102688270929412B0A2C282F82302031023284340136803708380439613C043D49C07F2F
:40048000C2DEC42FCAFDCCDFCEDF012C031104CA0634072008130A6C0B200E801110151C1722180319301A041B0C1C131EE41F03210923102A352D142EC8312032F0340FA0
:4004C000371F3A283F015440580459045B045C225F0180038434860B8701880F8A308B018C3F8D02900193029502960B9C349E0BA020A410A702A830AC02B003B238B30124
:40050000B404B502B920BA08BB02BE10BF04D418D804D904DB04DC22DD20DF0100600108038005140601070108020A120E010F04108811801308151016021740192A1D145C
:40054000204022242640278029082E022F023209351436403721384039283D103E213F04590260046280661867028A849004912892339306944098029A399B489D3C9FA09F
:40058000A098A140A208A302A660AF04C0EFC2CDC4CFCA92CCF3CEEED601D87CEC08B610B78067029A40AE40D680EA106240664097029A40D6C01F019702C62008806208F3
:4005C0006610C202D80300085D109880B218C008D604EC059510B004B480EA0C9510AD1000050C050E0510051C050000C0800200004BFF301F802000C03401007F088075CC
:40060000000000340014602000149F00803F0040C0200402C0340800903440000007FF80007800000028000300000400630402000500E00C18FFFFFF62A0F0410C0000007F
:400640000000000004040400000200010000000000004002001030100010101200000000000000000000000000000000004040004000000000101000000000001E00011E8A
:400680000200020000000000000101000000000040A0A000A00000000000000000000000000000000000000000000000000000000000000000000000000000000000000014
:4006C00000000000000000000000000000000000000000000000000000000000000000000000000000000000000000000000000000000000000000000000000000000000FA
:4007000000000000000000000000000000000000000000000000000000000000000000000000000000000000000000000000000000000000000000000000000000000000B9
:400740000000000000000000000000000000000000000000000000000000000000000000000000000000000000000000000000000000000000000000000000000000000079
:400780000000000000000000000000000000000000000000000000000000000000000000000000000000000000000000000000000000000000000000000000000000000039
:0200000490006A
:0400000000004005B7
:0200000490105A
:04000000BC90ACAF55
:0200000490303A
:020000003BDEE5
:0200000490402A
:4000000000000000000000000000000000000000000000000000000000000000000000000000000000000000000000000000000000000000000000000000000000000000C0
:400040000000000000000000000000000000000000000000000000000000000000000000000000000000000000000000000000000000000000000000000000000000000080
:400080000000000000000000000000000000000000000000000000000000000000000000000000000000000000000000000000000000000000000000000000000000000040
:4000C0000000000000000000000000000000000000000000000000000000000000000000000000000000000000000000000000000000000000000000000000000000000000
:0200000490501A
:0C00000000012E16006900012E313C4763
:00000001FF